{
  "contractName": "DappToken",
  "abi": [
    {
      "constant": true,
      "inputs": [],
      "name": "totalSupply",
      "outputs": [
        {
          "name": "",
          "type": "uint256"
        }
      ],
      "payable": false,
      "stateMutability": "view",
      "type": "function"
    },
    {
      "inputs": [],
      "payable": false,
      "stateMutability": "nonpayable",
      "type": "constructor"
    }
  ],
  "bytecode": "0x6080604052348015600f57600080fd5b50620f4240600081905550607b806100286000396000f3fe6080604052348015600f57600080fd5b506004361060285760003560e01c806318160ddd14602d575b600080fd5b60336049565b6040518082815260200191505060405180910390f35b6000548156fea165627a7a7230582077748ebdb08c3766007558315787dd08e24f09b5404bd24fc289f0c054b786ac0029",
  "source": "pragma solidity >=0.4.21 <0.6.0;\r\ncontract DappToken{\r\n    //constructor\r\n    /**Run when smart contract deployed */\r\n    //set token\r\n    //read total number of token\r\n    uint256 public totalSupply;\r\n    constructor () public{\r\n        totalSupply = 1000000;\r\n    }\r\n\r\n}\r\n\r\n",
  "sourcePath": "E:/blockchain/coin/contracts/DappToken.sol",
  "compiler": {
    "name": "solc",
    "version": "0.5.8+commit.23d335f2.Emscripten.clang"
  },
  "schemaVersion": "3.0.15",
  "updatedAt": "2019-09-12T14:12:33.335Z",
  "devdoc": {
    "methods": {}
  },
  "userdoc": {
    "methods": {}
  }
}